0MSTM000000103342212020020412020020311000497823                                                                         
1042046000363385202002040837P000000000000000MBWAY          0000000200000001111111112405712150000004100                  
1042046100663982202002041553P000000000000000MBWAY          0000001000000001111111110000000000000004200                  
90000000200000000000001200000000000000000000000000                                                                      
